:020000040000FA
:2000000000400020750000008101000097010000A1010000AB010000B5010000BF0100002D
:20002000C9010000D3010000DD010000E7010000F1010000FB010000050200000F02000056
:200040001902000080B500AF82B0019100F000F880B500AF06480078012802D1FFE700F079
:20006000E0F8FFE702480121017000F0DCF8C0466C02000080B500AF8AB000F05DF82748DB
:20008000274901602748099008900220099003200890099801460D318142049101D304E043
:2000A000FEE724480021FFF7CDFF0498411E0128039104D2FFE71F480021FFF7C3FF1F2019
:2000C000039901400120884007900898011D8142029104D2FFE717480021FFF7B3FF029831
:2000E000411E0128019104D2FFE712480021FFF7A9FF1F20019901400120884006900798D9
:200100000699084308494840059005980749086005980349484006490860C1E718050050F5
:20012000F0FF0000AAAAAAAAF01F0000080500500C0500500400000080B500AF82B0012020
:20014000002804D1FFE70A480021FFF77BFF094809490A1A8142019204D2FFE70748002190
:20016000FFF770FF0348019900F061F802B080BD2C0000006C0200006D02000004000000F0
:2001800080B500AF012000F000F880B500AF82B0019000F04AF880B500AF0220FFF7F5FFA9
:2001A00080B500AF0320FFF7F0FF80B500AF0420FFF7EBFF80B500AF0520FFF7E6FF80B552
:2001C00000AF0620FFF7E1FF80B500AF0720FFF7DCFF80B500AF0820FFF7D7FF80B500AFDC
:2001E0000920FFF7D2FF80B500AF0A20FFF7CDFF80B500AF0B20FFF7C8FF80B500AF0C2063
:20020000FFF7C3FF80B500AF0D20FFF7BEFF80B500AF0E20FFF7B9FF80B500AF0F20FFF799
:20022000B4FFFFE7FEE7FFE7FEE7FFE7FEE70A46002180B500F001F880BD84B00B460290C7
:2002400001A80170009200200390FFE703980099884208D0FFE703980299019A0A540398D3
:0C026000401C0390F2E7029804B07047C5
:00000001FF
