:020000040000FA
:2000000000400020A90000000109000019090000230900002D0900003709000041090000BF
:200020004B090000550900005F09000069090000730900007D090000870900009109000008
:200040009B09000080B500AF82B0019100F016F880B500AF82B001460122104001AA10705B
:200060001078002804D1FFE703480021FFF7EAFFFFE702B080BDC046C02B000080B500AF20
:2000800082B0084909780129019002D1FFE700F089FCFFE7034801210170019800F08EFC9C
:2000A00000F092FC1802002080B500AF82B000F041F81948FF210160012081070860FFE770
:2000C00016480068002801D1FFE7F9E7144800F055F8144800F07EF800F0ACF812480190C0
:2000E00000F0AAF8114800F0E1F8114800F05CF9019800F07DF9FFE70A4800F0D5F900F0C9
:200100002FFA094800F05EFA084800F0AFFA084800F068FBF0E7C0465005004000010040DE
:2001200000000020D4000020F4000020040100201402002080B500AF82B00120002804D108
:20014000FFE70A480021FFF77DFF094809490A1A8142019204D2FFE707480021FFF772FF24
:200160000348019902F0DBFE02B080BD4027000000000020240200204827000081B00090E3
:20018000012001060D4A11600D4919220A600D4918220A600C4904220A600C4908600C4983
:2001A00008600098D021002242540098C82142500098CC21425001B07047C0461805005091
:2001C000142500400C25004000250040002000400820004080B500AF82B0019001980021A7
:2001E00001600198416001980C4A5368C3601268826001980161019841610198C1610848FA
:20020000032101600748042101600748012101600648074900F0E4FB02B080BD942C000096
:200220000885004010850040008000401C020020881300007047C04680B500AF86B0039019
:20024000164817490160012040030590039800210491FFE704980228029007D8FFE7039897
:20026000049903290190009109D304E003980021C16006B080BD0B480021FFF7E3FE009820
:200280008100059A084B1A43019B5A5005994900059102994A1C0492DCE7C04618050050FE
:2002A000F0FF000064270000F01F000080B500AF82B0019001980830244908600198252189
:2002C0000160234800680007002815D4FFE72148006821490860214800682149086021483D
:2002E0000068214908602148006821490860214800682149086000E0FFE7252000F07EFB0A
:200300001E4908601E48032101601E481E4901601E481F4901601F488E2101601E48D621F2
:2003200001601E480121016001981D4A126842600198432292000023835001982122D20023
:2003400083501848016002B080BDC04604150040AC000010C400001024170040C8000010D8
:2003600028170040CC0000102C170040D000001030170040D400001034170040081500406C
:2003800010150040141500400601020018150040FF0003001C1500402415004030150040A8
:2003A000501500400410004080B500AF82B001900B48002101600B48016001980A49C969F6
:2003C000016000F03FFB0620084900F045FB0520012100F04FFB00F05BFB02B080BDC0462F
:2003E0004407005068070050D4000020E703000080B500AF86B005900598002101220491A0
:20040000049B03921A46039B00F048FB05980399049A039B00F042FB059802210291049AE4
:20042000039B00F03BFB059803210191049A039B00F034FB059804210091049A039B00F0CB
:200440002DFB05980199039A039B00F027FB05980299029A039B00F021FB05980399019A9E
:20046000039B00F01BFB05980499009A039B00F015FB05980399009A039B00F00FFB05985E
:200480000299009A039B00F009FB05980199009A039B00F003FB05980099009A039B00F0DA
:2004A000FDFA06B080BDC04680B500AF88B00690069801684A1C8A42059004922CD32FE028
:2004C000069801461C31C069421C82420391029235D338E0FFE7069801460831007B0128AF
:2004E000019111D1FFE706980799019A1368C91A416006984168436900900846194600F0AA
:2005000073FB0099486100E0FFE70698079901220273816008B080BD10480021FFF792FDBB
:200520000498059908600B4800F050FB0790079806990969401A08498842C1D8CAE7074836
:200540000021FFF77FFD029803990860069A079B1361C0E71C0200203F420F0048270000D0
:2005600080B500AF82B0144800F050FBC007002802D1FFE702B080BDFFE70F4800F04EFBC1
:2005800001A9087008780D2800900ED0FFE70098C1B2722905D0FFE70199074800F046FBB5
:2005A00008E007480021416104E00348034900F089FBFFE702B080BD0000002070270000C6
:2005C000D4000020D0B502AF88B00790214800F0A7FBC00700280CD0FFE71F4800681F493F
:2005E00008400799CA68032A06900591049207D302E0FFE708B0D0BD19480021FFF722FD74
:2006000004988100059A5158069B0B4312490B6007990B460C33C9684C1C8C4203930294FD
:2006200004D2FFE710480021FFF70CFD002000280CD1FFE70321029802F05DFC039A116064
:2006400004490190084600F083FBD3E705480021FFF7F8FC1C020020040500500F00FFFF4A
:2006600064270000A42700004827000080B500AF8EB00B905448C0690D9054480068012869
:200680000ED1FFE75148002101600B982121C90042184058411C81420A92099158D35BE01E
:2006A000FFE74C4800680C900C980B994968884228D0FFE70B980C9941600C9802280DD186
:2006C000FFE70B9801684A1C8A42089007925DD360E00B982521016004E003E00C98032875
:2006E0000AD00AE00B98006800F088F9384908603B48012101601DE003E00C9800F03FFB1D
:20070000FFE717E00C98C11E4A425141032806910BD1FFE70D980B994322920089584A1C50
:200720008A42059004923DD340E00698C007002801D109E00AE00B980D994322920081504F
:2007400025480121016000E0FFE7FFE70EB080BD22480021FFF776FC09980A9908600B9ABE
:200760002123DB00D0581A4A12684B235B01D31893420390029304D2FFE718480021FFF76F
:2007800061FC0398029900F0EFFA8AE713480021FFF758FC0798089908600B9A1268272A9E
:2007A00097D89AE70D480021FFF74CFC01200021059A049B9A420191009001D2019800901B
:2007C00000980690B1E7C046D40000200411004008150040501500400C1000404827000037
:2007E0000810004080B500AF8CB00690394800F0CFFA3948C0690B900B98069909684A1C53
:200800008A42059004924CD34FE0344800688003002805D4FFE734480A903448099004E036
:200820002F480A902F480990FFE72C4800684001002805D4FFE72C4808902C48079004E0B2
:200840002748089027480790FFE700F00BFB00F017FB01200390039900F00CF91E48C169D8
:2008600042684069029008461146029A00F00EFB1A4800681E49084009A907AA00F01EFB74
:200880001C482121C90040581B4909684B2252018A188A42019000920CD30FE0FFE70CB0BB
:2008A00080BD16480021FFF7CDFB059804998842ABD2F3E711480021FFF7C4FB0198009902
:2008C00000F010FB00F024FB00F030FB06980B990160E4E700000020D4000020100500500C
:2008E0006173656472656C6573656420707265730F00FFFC040100200815004048270000A2
:2009000080B500AF012000F000F880B500AF82B00190019800F010FB80B500AF0220FFF7B3
:20092000F4FF80B500AF0320FFF7EFFF80B500AF0420FFF7EAFF80B500AF0520FFF7E5FF0F
:2009400080B500AF0620FFF7E0FF80B500AF0720FFF7DBFF80B500AF0820FFF7D6FF80B5D1
:2009600000AF0920FFF7D1FF80B500AF0A20FFF7CCFF80B500AF0B20FFF7C7FF80B500AF5B
:200980000C20FFF7C2FF80B500AF0D20FFF7BDFF80B500AF0E20FFF7B8FF80B500AF0F20DF
:2009A000FFF7B3FF80B500AF00F0D6FA024800F0D8FAFFE720BFFDE70000002080B500AF32
:2009C00000F0E2FA80BDC04680B500AF00F0F2FA024800F0C6FAFFE720BFFDE70000002085
:2009E00080B500AF82B001900091019800990160019800F0ADF902B080BDC04680B500AF24
:200A000084B003900398411C8142029104D2FFE70B480021FFF716FB022000210191029A19
:200A2000019B02F03BF94A1E91410129009004D1FFE703480021FFF705FB009804B080BD5A
:200A40004827000080B500AF024A0220002100F0B7FA80BDB027000080B500AF82B0019058
:200A6000009101980099024A00F0AAFA02B080BDBC27000080B500AF82B001900091019830
:200A80000099024A00F09CFA02B080BDC827000080B500AF00F0E2FA80BDC04680B500AF36
:200AA00094B00C900B910A9209930A9A052000210891089B02F0F2F84A1E91410029079086
:200AC0002CD12FE0109801218903884203D006E000200F900AE001200F90069003E002202D
:200AE0000F900690FFE706980F90FFE70C980F9903290590049143D33EE00D9811998843C8
:200B00000D9004E00D98119908430D90FFE70C980F9903290390029143D33EE02A480021D2
:200B2000FFF790FA0B98079908188842019004D2FFE725480021FFF785FA019813901399D0
:200B40001929009104D3FFE71C480021FFF77AFA009881001A4A515812911299194A1140EE
:200B60001191129907225203114010911099012252039142ACD0A5E710480021FFF762FAF1
:200B800004988100059A51580E910E990D4B19400D9109990129B0D0B4E708480021FFF70D
:200BA00051FA029881000E9A07235B031A400D9B1A43039B5A5014B080BDC0466427000066
:200BC000B4260000F01F00004827000081B000900348012101600348006801B07047C0460D
:200BE000408000404085004083B00290019102980199884203D9FFE70298009002E0019834
:200C00000090FFE7009803B07047C04602480068401E4142484170470821004081B0009059
:200C20000148006801B0704718250040D0B502AF86B00A46049003A801700498CC21405891
:200C4000411C8142029113D316E005980499C8228958884204D1FFE7049800F099F8F4E783
:200C60000498CC214158C8290190009116D311E013480021FFF7E6F90020002806D1FFE70F
:200C8000C821029802F037F90591DEE70B480021FFF7D8F908480021FFF7D4F903980199B0
:200CA000009A88540498059BCC240351049800F06FF806B0D0BDC04664270000A4270000AC
:200CC0004827000080B500AF86B0049000200590486803910290FFE70598029988420190F3
:200CE0001CD2FFE703980168019A8B18895C0A29009306D0FFE7049800990978FFF796FF36
:200D000008E004980D21FFF791FF04980A21FFF78DFFFFE70198411C0591DDE706B080BD29
:200D200080B500AF84B002900298FFF74FFF0390039802994A68801A096801220023884295
:200D40000193009201D201980090009804B080BD80B500AF82B0019001980090FFF736FFED
:200D60000099486002B080BD80B500AF82B0019000910198009900F085F902B080BD80B547
:200D800000AF82B00190019800F094F902B080BDD0B502AF88B007900798C8214158CC22C8
:200DA00080580A1A531E9A418142069214D0FFE70798D021405C01214840C107002905906A
:200DC00007D1FFE722480068401E414248410590FFE705980690FFE70698C007002808D020
:200DE000FFE70798C8214158C8290490039107D302E0FFE708B0D0BD16480021FFF722F95C
:200E000004980399425C144B1A60079A1346C833C8241259541C94420293019404D2FFE7AB
:200E20000F480021FFF70EF9002000280BD1FFE7C821019802F05FF8029A11600799D023C8
:200E40000124CC54D6E705480021FFF7FBF8C0461C210040642700001C250040A4270000DF
:200E60004827000080B500AF82B0044A00200190019900F0A5F802B080BDC046D4270000D7
:200E800080B500AF00F02CF980BDC04680B500AF84B003900291019203980299019A00F084
:200EA00033F9054A00200090009900F089F800F045F904B080BDC046E027000080B500AFED
:200EC00082B00190019800F04DF9054A00200090009900F075F800F031F902B080BDC0467C
:200EE000E827000080B500AF84B0039002910398029900F053F9054A00200190019900F0A9
:200F00005FF800F01BF904B080BDC046F027000080B500AF82B0044A00200190019900F0C9
:200F20004FF802B080BDC046FC27000080B500AF00F04CF980BDC04680B500AF82B001904F
:200F4000019800F057F9034800F00BF8FFE720BFFDE7C0460000002080B500AF00F054F98A
:200F600080BD80B500AF82B00190FFE70198C8214158CC228058814204D0FFE70198FFF7BA
:200F800007FFF3E702B080BD80B500AFA6B00021039106A9049120210591054903AA0190EC
:200FA0001046019A00F044F902A9088026B080BD8512000080B500AF00F06EF980BDC046B8
:200FC00080B500AF8AB0099008910998012100230228079206900593049101D30598049050
:200FE00004980699012903900CD8FFE708980121002202280292019101D302980190019863
:201000000390FFE70398C007002808D1FFE70898022809D3FFE7099802280BD310E00E4893
:20102000079900F04DF914E009990B48079A00F061F90DE008990848079A00F075F906E043
:201040000999089A0448079B00F088F9FFE7FFE7FFE70AB080BDC0461827000080B500AF1B
:20106000A4B00020019004A8029020200390044901A800F093F96946088024B080BDC0469A
:201080008512000080B500AFA6B00022039206AA04922022059201900091019A009B044904
:2010A00003A800F08DF902A9088026B080BDC0468512000080B500AFA6B00021039106A98E
:2010C0000491202105910190019A044903A800F0BBF902A9088026B080BDC04685120000F9
:2010E00080B500AFA4B00020019004A8029020200390044901A800F0D1F96946088024B03B
:2011000080BDC0468512000080B500AFA8B00023059308AB0693202307930390029101921C
:20112000039A029B01980090034905A800F0C8F904A9088028B080BD8512000080B500AFDD
:20114000A4B00020019004A8029020200390044901A800F013FA6946088024B080BDC04638
:201160008512000080B500AFA8B00023059308AB069320230793039003980092064A05ABF8
:201180000290184601911146029A019B00F008FA04A9088028B080BD8512000080B500AF87
:2011A000A6B00022039206AA04922022059201900091019A009B044903A800F043FA02A9DB
:2011C000088026B080BDC0468512000080B500AFA4B00020019004A8029020200390044990
:2011E00001A800F069FA6946088024B080BDC0468512000080B500AF82B00190019800F0DE
:201200006DFA02B080BDC04680B500AFA4B00020019004A8029020200390044901A800F092
:2012200073FA6946088024B080BDC0468512000080B500AF8AB0069106990F4B0590049184
:201240001946049B0392984709A90880069B032000900A4A0598039900F068FA08A9088076
:2012600006980749059A02901046029B984707A9088000200AB080BD282800003028000086
:201280004428000080B500AF0248FFF71BFD002080BDC0460000002080B500AFA4B00020CB
:2012A000019004A8029020200390044901A800F055FA6946088024B080BDC0468512000072
:2012C00080B500AFA6B00022039206AA049220220592074A03AB0190184600911146019A8D
:2012E000009B00F04DFA02A9088026B080BDC0468512000080B500AFA8B00023059308AB8F
:201300000693202307930391039B0092054905AA02901046029A00F059FA04A9088028B0C2
:2013200080BDC0468512000080B500AFA8B00023059308AB0693202307930391039B0092EF
:20134000054905AA02901046029A00F06FFA04A9088028B080BDC04685120000D0B502AF96
:20136000AAB0002407940AAC089420240994059104920599049A01930092074A07AB0390FD
:20138000184602911146039A029B00F08BFA06A908802AB0D0BDC0468512000080B500AF37
:2013A00084B002910299054A01911146019A904703A90880002004B080BDC046742800003A
:2013C000D0B502AF8EB00891079206930899194A059004911146049A90470DA908800799F6
:2013E000089B03200090144A059C0390204600F0A3FA0CA9088008981049059A0290104655
:20140000029B98470BA908800699089B039800900B4A059800F090FA0AA90880089809490E
:20142000059A01901046019B984709A9088000200EB0D0BD9028000098280000AC280000BA
:20144000B4280000C828000080B500AF8AB00691059206990E4A049003911146039A90478A
:2014600009A908800599069B03200090094A049800F07CFA08A9088006980749049A029094
:201480001046029B984707A9088000200AB080BDD0280000D8280000EC28000080B500AF3B
:2014A00084B002910299054A01911146019A904703A90880002004B080BDC046FC280000B1
:2014C000D0B502AF92B0BC680A91099208930A99234A079006911146069A0594904711A940
:2014E000088009990A9B032000901E4A079C0490204600F055FA10A908800A981A49079A3F
:2015000003901046039B98470FA9088008990A9B04980090154A079800F042FA0EA908804A
:201520000A981349079A02901046029B98470DA90880B9680A9B049800900E4A079800F091
:201540002FFA0CA908800A980B49079A01901046019B98470BA90880002012B0D0BDC0467B
:2015600020290000282900003C2900004429000058290000602900007429000080B500AF74
:2015800084B002910299054A01911146019A904703A90880002004B080BDC046802900004B
:2015A000D0B502AF90B0BC680991089209991F4A079006911146069A0593049490470FA96E
:2015C00008800899099B03200090194A079C0390204600F0FFF90EA9088009981549079AC5
:2015E00002901046029B98470DA90880099B03980090114A0798059900F006FA0CA90880B5
:2016000009980E49079A01901046019B98470BA90880099B03980090094A0798049900F045
:20162000F3F90AA90880002010B0D0BDB0290000B8290000CC290000D4290000E829000059
:20164000F0290000D0B502AF8CB00791069205930799154A049003911146039A90470BA991
:2016600008800699079B03200090104A049C0290204600F0E5F90AA9088007980C49049A61
:2016800001901046019B984709A908800599079B02980090074A049800F0D2F908A9088063
:2016A00000200CB0D0BDC0461C2A0000242A0000382A0000402A000080B500AF84B00291B0
:2016C0000299054A01911146019A904703A90880002004B080BDC0465C2A000080B500AF10
:2016E000A6B00021039106A90491202105910190019A044903A800F0BDF902A9088026B0F1
:2017000080BDC0468512000080B500AF84B002910299054A01911146019A904703A90880CB
:20172000002004B080BDC046842A0000D0B502AF84B0BC680393039B0290019400F0C4F94E
:20174000014600040028009104D0FFE7029800F0D0F900E0FFE7009804B0D0BD80B500AFF5
:2017600084B002910299054A01911146019A904703A90880002004B080BDC0468C2A00005C
:20178000B0B502AF88B005910599032400940D4D0490039111462A46039D02932B46019488
:2017A00000F0C0F907A90880059B01980090064A0498029900F0D2F906A90880002008B02E
:2017C000B0BDC046942A0000A82A0000B0B502AF8AB0BC6806910593069B03210091104DB0
:2017E0000490039111462A46029400F0CFF909A908800599069B039800900A4A049800F028
:20180000E1F908A90880069B03980090064A0498029900F0F1F907A9088000200AB0B0BD09
:20182000BC2A0000D02A0000E42A0000B0B502AF8CB0BC6807910693079B03210091154D5A
:201840000590049111462A46039400F0EDF90BA9088007981049059A02901046029B9847F3
:201860000AA908800699079B049800900B4A059800F0F6F909A90880079B04980090084A95
:201880000598039900F006FA08A9088000200CB0B0BDC046F82A0000142B00001C2B0000EF
:2018A000302B0000F0B503AF8DB0FC68BD6807910693079B032100911A4E0590049111463F
:2018C00032460394029500F0FDF90CA908800699079B04980090144A059800F00FFA0BA92A
:2018E000088007981149059A01901046019B98470AA90880B968079B049800900C4A059849
:2019000000F0FCF909A90880079B04980090094A0598039900F00CFA08A9088000200DB042
:20192000F0BDC046442B0000582B0000782B0000802B0000942B0000D0B502AF86B0BC6865
:20194000059104930599049B0390029400F008FA014600040028019104D0FFE7039800F0B8
:20196000C8F800E0FFE7019806B0D0BDD0B502AF86B0BC68059104930599049B03900294E2
:2019800000F006FA014600040028019104D0FFE7039800F0AEF800E0FFE7019806B0D0BDC5
:2019A000D0B502AF86B0BC68059104930599049B0390029400F004FA014600040028019111
:2019C00004D0FFE7039800F094F800E0FFE7019806B0D0BDD0B502AF86B0BC6805910493D7
:2019E0000599049B0390029400F002FA014600040028019104D0FFE7039800F07AF800E0F9
:201A0000FFE7019806B0D0BDD0B502AF86B0BC680393039B04910821059104A90290019418
:201A200000F0FEF9014600040028009104D0FFE7029800F05EF800E0FFE7009806B0D0BD80
:201A4000D0B502AF86B0BC68059104930599049B0390029400F0F9F901460004002801917C
:201A600004D0FFE7039800F044F800E0FFE7019806B0D0BD80B500AF8AB006910592069958
:201A80000E4A049003911146039A904709A908800599069B03200090094A049800F0EDF90A
:201AA00008A9088006980749049A02901046029B984707A9088000200AB080BD042C00007E
:201AC0000C2C0000202C000080B500AF84B00393039A02909047014600040028019104D0F5
:201AE000FFE7029800F005F800E0FFE7019804B080BDD0B502AF82B07146002801900091C0
:201B000002D1FFE702B0D0BD019881680268491E13460B4041689B00009CCC50511C01600C
:201B200002B0D0BDD0B502AF86B0BC680393039B04910221059104A90290019400F0B7F9E0
:201B4000014600040028009104D0FFE70298FFF7D0FF00E0FFE7009806B0D0BDD0B502AF91
:201B600084B0BC680393039B0290019400F09FF9014600040028009104D0FFE70298FFF7DC
:201B8000B8FF00E0FFE7009804B0D0BDD0B502AF86B0BC680393039B04910221059104A930
:201BA0000290019400F098F9014600040028009104D0FFE70298FFF79CFF00E0FFE7009836
:201BC00006B0D0BDD0B502AF86B0BC68059104930599049B0390029400F093F901460004D8
:201BE0000028019104D0FFE70398FFF782FF00E0FFE7019806B0D0BDD0B502AF84B0BC682F
:201C00000393039B0290019400F066F9014600040028009104D0FFE70298FFF76AFF00E083
:201C2000FFE7009804B0D0BDD0B502AF86B0BC680393039B04910221059104A902900194FF
:201C400000F077F9014600040028009104D0FFE70298FFF74EFF00E0FFE7009806B0D0BDE8
:201C6000D0B502AF86B0BC68059104930599049B0390029400F072F90146000400280191E1
:201C800004D0FFE70398FFF734FF00E0FFE7019806B0D0BDD0B502AF84B0BC680393039B62
:201CA0000290019400F045F9014600040028009104D0FFE70298FFF71CFF00E0FFE7009808
:201CC00004B0D0BDD0B502AF86B0BC680393039B04910221059104A90290019400F056F99E
:201CE000014600040028009104D0FFE70298FFF700FF00E0FFE7009806B0D0BDD0B502AFC0
:201D000086B0BC68059104930599049B0390029400F051F9014600040028019104D0FFE7DD
:201D20000398FFF7E6FE00E0FFE7019806B0D0BDD0B502AF84B0BC680393039B02900194A3
:201D400000F024F9014600040028009104D0FFE70298FFF7CEFE00E0FFE7009804B0D0BDBD
:201D600080B500AF84B0039102930399029B019000F039F9014600040028009104D0FFE778
:201D80000198FFF7B6FE00E0FFE7009804B080BD80B500AF84B0039102930399029B0190A6
:201DA00000F03FF9014600040028009104D0FFE70198FFF79EFE00E0FFE7009804B080BDC3
:201DC00080B500AF84B0039102930399029B019000F045F9014600040028009104D0FFE70C
:201DE0000198FFF786FE00E0FFE7009804B080BD80B500AF84B0039102930399029B019076
:201E000000F04BF9014600040028009104D0FFE70198FFF76EFE00E0FFE7009804B080BD86
:201E200080B500AF84B00393039A02909047014600040028019104D0FFE70298FFF759FE48
:201E400000E0FFE7019804B080BD80B500AF84B0039102930399029B019000F03CF90146BB
:201E600000040028009104D0FFE70198FFF741FE00E0FFE7009804B080BDD0B502AF86B062
:201E8000BC68059104930599049B0390029400F040F9014600040028019104D0FFE7039808
:201EA000FFF727FE00E0FFE7019806B0D0BD80B500AF84B00393039A029090470146000466
:201EC0000028019104D0FFE70298FFF712FE00E0FFE7019804B080BD80B500AF84B00393F0
:201EE000039A02909047014600040028019104D0FFE70298FFF7FDFD00E0FFE7019804B080
:201F000080BD80B500AF84B0039102930399029B019000F016F9014600040028009104D0A2
:201F2000FFE70198FFF7E5FD00E0FFE7009804B080BD80B500AF84B00393039A0290904747
:201F4000014600040028019104D0FFE70298FFF7D0FD00E0FFE7019804B080BD80B500AF31
:201F600084B0039102930399029B019000F007F9014600040028009104D0FFE70198FFF7FD
:201F8000B8FD00E0FFE7009804B080BD80B500AF84B00393039A0290904701460004002816
:201FA000019104D0FFE70298FFF7A3FD00E0FFE7019804B080BD80B500AF84B00391029314
:201FC0000399029B019000F0F8F8014600040028009104D0FFE70198FFF78BFD00E0FFE7BC
:201FE000009804B080BD80B500AF88B006910593069907910799059B019300920A22002321
:20200000049000F0F8F8014600040028039104D0FFE70498FFF76DFD00E0FFE7039808B076
:2020200080BD80B500AF88B006910593069907910799059B0193009210220023049000F0A2
:20204000DAF8014600040028039104D0FFE70498FFF74FFD00E0FFE7039808B080BD80B584
:2020600000AF88B006910593069907910799059B019300920A220023049000F0BCF80146DF
:2020800000040028039104D0FFE70498FFF731FD00E0FFE7039808B080BD80B500AF88B094
:2020A00006910593069907910799059B0193009210220023049000F09EF801460004002872
:2020C000039104D0FFE70498FFF713FD00E0FFE7039808B080BD80B500AF88B0069105936F
:2020E000069907910799059B019300920A220023049000F080F8014600040028039104D01D
:20210000FFE70498FFF7F5FC00E0FFE7039808B080BD80B500AF84B0039102930399029B86
:20212000019000F097F8014600040028009104D0FFE70198FFF7DDFC00E0FFE7009804B057
:2021400080BD80B500AF88B006910593069907910799059B019300920A220023049000F087
:202160004AF8014600040028039104D0FFE70498FFF7BFFC00E0FFE7039808B080BD80B584
:2021800000AF88B006910593069907910799059B019300920A220023049000F02CF801464E
:2021A00000040028039104D0FFE70498FFF7A1FC00E0FFE7039808B080BD80B500AF88B004
:2021C00006910593069907910799059B019300920A220023049000F00EF8014600040028E7
:2021E000039104D0FFE70498FFF783FC00E0FFE7039808B080BDF0B503AF8DB0FC68BD680D
:202200001E4608920B910AA907900898087001210B4009A90B700B990C910C99FB6809983E
:2022200006920A9A01930095079B05901846059B0494039600F02CF80146000400280291B9
:2022400004D0FFE70798FFF754FC00E0FFE702980DB0F0BD80B500AF88B00691059306992B
:2022600007910799059B019300920A2200230490FFF7C1FF014600040028039104D0FFE706
:202280000498FFF736FC00E0FFE7039808B080BDF0B503AFBFB0FC68BD681E461D92209111
:2022A0001FA91C901D980870012003401B901EA803700878002101281B981A9519911890B7
:2022C00001D8199818901898FDF7C2FEAE483E903D903C903B903A90399038903790209866
:2022E000369020203590FFE7FFE736981FA9097800291790169175D069E001E0FFE7F3E78A
:2023000035982128159000D2ADE0A8E00020319003E0149801683191FFE73198339988423B
:2023200008D9FFE731983399421A8842139200D2A9E0ACE000203090FFE730983599884269
:2023400035D9FFE71A98817C2FAA11703099359A8B1A9142129300D29CE09FE0FFE7F868B8
:202360002FA92D912C912C992A9101212B912AA91C9A11901046119B984729A908802E9881
:20238000411E0128109100D28BE08EE001E0FFE7E4E7359800280F9000D391E08CE01C98DF
:2023A000FFF7A7FB00E0FFE70E983FB0F0BD35983099421A88420D9200D2A6E0A9E01C988D
:2023C000FFF797FB00E0FFE70C983FB0F0BD1798169900F090FD349135994A1E01290B92D2
:2023E00004D307E06D480021FDF72CFE69480021FDF728FE0B983590359920290A9104D34E
:20240000FFE762480021FDF71DFE37A80A994018349AD3B29A42099008920ED1FFE71E9944
:20242000089800F0BDF80999087036981FAA1278002A0790069204D007E055480021FDF756
:2024400001FE55480021FDF7FDFD0798069900F08DFC36903698002800D14EE74EE74B4890
:202460000021FDF7EFFD37A81599401832902020401A33901A9808301A9A137B002B14905C
:2024800000D046E742E743480021FDF7DBFD1398309052E73F480021FDF7D4FD12982E9025
:2024A0005CE73C480021FDF7CDFD10982E902E99002900D16AE76AE734480021FDF7C2FD5D
:2024C0000F98212804D3FFE730480021FDF7BAFD37A827900F9928911A9A917C27AB0590EC
:2024E000184600F0C7F8F868059925912022269225A91C9A04901046049B984701460004EA
:2025000000280E9100D04AE74DE722480021FDF799FD0D98212804D3FFE71C480021FDF786
:2025200091FD37A80D99401823902020401A24903098249A00280390029204D2FFE7134843
:202540000021FDF77FFD03980299884204D9FFE70E480021FDF776FD239821900398229090
:202560001A99897C21A800F085F8F86823A91C9A01901046019B98470146000400280C9119
:2025800000D01CE71FE7C046AAAAAAAA64270000442C0000482700004C2C0000A427000007
:2025A000D0B502AF8AB00A46034608AC20700120014007A8017020780021002906900DD1F6
:2025C000FFE70698C1B2092908D8FFE708A800783030C1B2814205902CD12FE00698C1B29C
:2025E0000A291FD3FFE70698C1B223291AD8FFE708A8007807A909780129049005D1FFE7C8
:2026000009A841210170039104E009A8612101700391FFE70398C0B20A38C1B28142029089
:202620000FD112E0FFE711480021FDF70BFD01980AB0D0BD0E480021FDF704FD05980190F2
:20264000F5E70B480021FDF7FDFC0298C1B2049AD3B25918CBB28B42009104D0FFE70448BB
:202660000021FDF7EFFC00980190E0E7C02B00004827000086B00A4603AB1970002105919C
:20268000416802900191FFE705980199884200900BD2FFE702980168009A891804910499C3
:2026A000039B0B70511C0591EEE706B07047D4D4450000001020000080400000202000009F
:2026C0000041000040200000808000000081000000820000008400000088000020400000EA
:2026E0000030000040400000009000001040000000280000002400000022000000210000BB
:202700008020000040800000004400001080000000420000208000001B5B000051000000DC
:20272000636173742063617573657320706F696E74657220746F206265206E756C6C000064
:20274000202700001E000000542C000010000000696E646578206F7574206F6620626F7599
:202760006E64730050270000130000000A0000006C2700000100000072656D61696E6465A7
:2027800072206469766973696F6E206279207A65726F206F72206E6567617469766520765D
:2027A000616C7565782700002C0000004A000000AC2700000100000072000000B827000038
:2027C0000100000048000000C42700000100000073000000D0270000010000004B0000000E
:2027E000DC27000001000000DC27000001000000DC2700000100000075000000F827000039
:20280000010000000A70616E69633A206D61696E2E7A69672070756220666E2070616E6908
:202820006328293A207B7D0A0428000021000000000000000000000000000000000000003B
:202840000000200027280000010000006B6579626F61726420696E7075742077696C6C206F
:202860006265206563686F65642062656C6F773A0A0000004C280000250000007265636554
:2028800069766564207B7D2066726571207B7D0A7C280000090000000000000000000000DB
:2028A000000000000000000000002000872800000600000000000000000000000000000043
:2028C00000000000000020008F28000001000000842C00000C000000000000000000000064
:2028E000000000000000000000002000932C0000010000001B5B3F32356C0000F428000054
:20290000060000007570207B7D73206379636C65207B7D7573206D6178207B7D75730000AB
:20292000042900000300000000000000000000000000000000000000000020000929000015
:2029400008000000000000000000000000000000000000000000200013290000070000000C
:2029600000000000000000000000000000000000000020001C290000020000000D0A0000D9
:202980007C290000020000006770696F2E696E207B783A387D20627574746F6E2061207B02
:2029A0007D20627574746F6E2062207B7D000000882900000800000000000000000000008B
:2029C000080000000100000000002000952900000A00000000000000000000000000000006
:2029E0000000000000002000A12900000A00000000000000000000000000000000000000E3
:202A000000002000626C65207278207B7D206672657175656E6379207B7D0000042A000009
:202A20000700000000000000000000000000000000000000000020000D2A00000B0000002D
:202A400000000000000000000000000000000000000020001B5B3F3235680000542A000054
:202A6000060000000A70616E69636B656420647572696E67206B65726E656C2070616E69F5
:202A8000630A0000642A00001E000000642C0000100000000000000000000000000000007D
:202AA0000000000000002000000000000000000000000000000000000000200000000000D6
:202AC0000000000000000000000000000000200000000000000000000000000000000000D6
:202AE000000020000000000000000000000000000000000000002000000000000000000096
:202B00000000000000000000000020007B7D3B7B7D7B7D000E2B0000010000000000000038
:202B2000000000000000000000000000000020000000000000000000000000000000000075
:202B4000000020000000000000000000000000000000000000002000000000000000000035
:202B60000000000000000000000020007B7D7B7D3B7B7D7B7D000000702B0000010000007E
:202B8000000000000000000000000000000000000000200000000000000000000000000015
:202BA00000000000000020007265616368656420756E726561636861626C6520636F6465D4
:202BC000A82B000018000000657863657074696F6E206E756D626572207B7D202E2E2E20B0
:202BE0006E6F772069646C6520696E2061726D20657863657074696F6E2068616E646C65F1
:202C0000720A0000C82B000011000000000000000000000000000000000000000000200014
:202C2000DB2B000027000000696E74656765722063617374207472756E6361746564206242
:202C400069747300282C00001B000000742C000010000000696E7465676572206F7665723B
:202C6000666C6F7770616E696320636F6D706C657465640A6469766973696F6E206279202A
:202C80007A65726F626C652073746174652030787B787D0A0000000000000000F0B503AF67
:202CA00091B01C4615460E46059009910599089107930692089A099B0F930E92069A079B60
:202CC0000D930C920E9A0C990490104603940295019600F010F80B910A900B980F990C9A9B
:202CE0004A430E990D9B4B43D11840180B900A980B9911B0F0BDB0B502AF86B0029001916A
:202D000002A8018801AA13884B43049304A94B8803930B880493039B4488158865435B19B2
:202D20000393049B039C24041B19049303AB5C8805944C880394098804910399548805880B
:202D40006543491903910499039C24040919049105995B88C91805910599408852884243FD
:202D6000881805900498059906B0B0BDF0B503AF8AB0029001910198002803D1FFE7002071
:202D80000AB0F0BDFFE70298002803D1FFE700200AB0F0BDFFE701984108084381080843FC
:202DA00001090843010A0843010C0843C0434108424A1140401A424903460B40800808409E
:202DC00018180309C0183F4B18403F4C25464543280E3F2506462E40009009A806700298DA
:202DE000460830438608304306093043060A3043060C3043C04346081640801B02460A40B3
:202E00008008084010180109401818404443200E0146294008AA11700099081A0790079877
:202E2000202803D3FFE700200AB0F0BDFFE707981F2803D1FFE702980AB0F0BDFFE70798FB
:202E4000401C0790029807992022511A1F22114088400690029807991140C8400590002060
:202E60000490FFE7079800281FD0FFE7059840000699C90F40180590069840000499084335
:202E8000069001980599C9430818C0170390039801210840049005980199039A1140401AB7
:202EA00005900798401E0790DCE70698400004990843069006980AB0F0BDC046555555556B
:202EC000333333330F0F0F0F0101010180B500AF84B002900191009202980199FFF746FFA9
:202EE000039000980299039A019B5343C91A0160039804B080BD80B500AF86B00190009131
:202F00000198009902AA121DFFF7E0FF029003980590029804900498059906B080BD0A4662
:202F2000002180B500F001F880BD84B00B46029001A80170009200200390FFE70398009985
:1C2F4000884208D0FFE703980299019A0A540398401C0390F2E7029804B0704756
:00000001FF
